{
  "_format": "hh-sol-artifact-1",
  "contractName": "EventRegistration",
  "sourceName": "contracts/EventRegistration.sol",
  "abi": [
    {
      "inputs": [],
      "stateMutability": "nonpayable",
      "type": "constructor"
    },
    {
      "inputs": [],
      "name": "OnlyOwnerCanCallThisFunction",
      "type": "error"
    },
    {
      "inputs": [],
      "name": "OwnerCanNotRegister",
      "type": "error"
    },
    {
      "inputs": [],
      "name": "UserAlreadyRegistered",
      "type": "error"
    },
    {
      "inputs": [],
      "name": "UserDidNotRegister",
      "type": "error"
    },
    {
      "inputs": [],
      "name": "YouDonnotHaveTheNFT",
      "type": "error"
    },
    {
      "anonymous": false,
      "inputs": [],
      "name": "EventSuccessfullyCreated",
      "type": "event"
    },
    {
      "anonymous": false,
      "inputs": [
        {
          "indexed": true,
          "internalType": "address",
          "name": "_attendeeAdr",
          "type": "address"
        },
        {
          "indexed": true,
          "internalType": "uint256",
          "name": "_date",
          "type": "uint256"
        }
      ],
      "name": "Registered",
      "type": "event"
    },
    {
      "inputs": [
        {
          "internalType": "string",
          "name": "_name",
          "type": "string"
        }
      ],
      "name": "createEvent",
      "outputs": [],
      "stateMutability": "nonpayable",
      "type": "function"
    },
    {
      "inputs": [
        {
          "internalType": "uint256",
          "name": "_id",
          "type": "uint256"
        }
      ],
      "name": "getEvent",
      "outputs": [
        {
          "components": [
            {
              "internalType": "uint256",
              "name": "id",
              "type": "uint256"
            },
            {
              "internalType": "string",
              "name": "name",
              "type": "string"
            }
          ],
          "internalType": "struct EventRegistration.EventName",
          "name": "",
          "type": "tuple"
        }
      ],
      "stateMutability": "view",
      "type": "function"
    },
    {
      "inputs": [
        {
          "internalType": "address",
          "name": "_userAddress",
          "type": "address"
        },
        {
          "internalType": "uint256",
          "name": "_id",
          "type": "uint256"
        }
      ],
      "name": "getRegisteredUser",
      "outputs": [
        {
          "components": [
            {
              "internalType": "address",
              "name": "attendeeAdr",
              "type": "address"
            },
            {
              "internalType": "string",
              "name": "name",
              "type": "string"
            },
            {
              "internalType": "uint256",
              "name": "date",
              "type": "uint256"
            },
            {
              "internalType": "uint256",
              "name": "phoneNumber",
              "type": "uint256"
            },
            {
              "internalType": "string",
              "name": "email",
              "type": "string"
            }
          ],
          "internalType": "struct EventRegistration.RegistrationDetail",
          "name": "",
          "type": "tuple"
        }
      ],
      "stateMutability": "view",
      "type": "function"
    },
    {
      "inputs": [
        {
          "internalType": "uint256",
          "name": "_eventid",
          "type": "uint256"
        },
        {
          "internalType": "string",
          "name": "_name",
          "type": "string"
        },
        {
          "internalType": "uint256",
          "name": "_phoneNumber",
          "type": "uint256"
        },
        {
          "internalType": "string",
          "name": "_email",
          "type": "string"
        }
      ],
      "name": "register",
      "outputs": [],
      "stateMutability": "nonpayable",
      "type": "function"
    }
  ],
  "bytecode": "0x608060405234801561001057600080fd5b50336000806101000a81548173ffffffffffffffffffffffffffffffffffffffff021916908373ffffffffffffffffffffffffffffffffffffffff160217905550734475a8fbef5cf4a92a484b6f5602a91f3abc72d8600160006101000a81548173ffffffffffffffffffffffffffffffffffffffff021916908373ffffffffffffffffffffffffffffffffffffffff1602179055506112b6806100b56000396000f3fe608060405234801561001057600080fd5b506004361061004c5760003560e01c80636d1884e0146100515780637a717fff146100815780639bc2bc71146100b1578063cb8c8659146100cd575b600080fd5b61006b600480360381019061006691906109ae565b6100e9565b6040516100789190610ab7565b60405180910390f35b61009b60048036038101906100969190610b37565b6101fe565b6040516100a89190610c03565b60405180910390f35b6100cb60048036038101906100c69190610d5a565b6104a2565b005b6100e760048036038101906100e29190610da3565b610540565b005b6100f1610905565b60006003600084815260200190815260200160002090508060000154831461014e576040517f08c379a000000000000000000000000000000000000000000000000000000000815260040161014590610e9f565b60405180910390fd5b806040518060400160405290816000820154815260200160018201805461017490610eee565b80601f01602080910402602001604051908101604052809291908181526020018280546101a090610eee565b80156101ed5780601f106101c2576101008083540402835291602001916101ed565b820191906000526020600020905b8154815290600101906020018083116101d057829003601f168201915b505050505081525050915050919050565b61020661091f565b60006003600084815260200190815260200160002090506000600460008360000154815260200190815260200160002060008673ffffffffffffffffffffffffffffffffffffffff1673ffffffffffffffffffffffffffffffffffffffff16815260200190815260200160002090508060000160009054906101000a900473ffffffffffffffffffffffffffffffffffffffff1673ffffffffffffffffffffffffffffffffffffffff168573ffffffffffffffffffffffffffffffffffffffff16146102fe576040517fbcb537ca00000000000000000000000000000000000000000000000000000000815260040160405180910390fd5b806040518060a00160405290816000820160009054906101000a900473ffffffffffffffffffffffffffffffffffffffff1673ffffffffffffffffffffffffffffffffffffffff1673ffffffffffffffffffffffffffffffffffffffff16815260200160018201805461037090610eee565b80601f016020809104026020016040519081016040528092919081815260200182805461039c90610eee565b80156103e95780601f106103be576101008083540402835291602001916103e9565b820191906000526020600020905b8154815290600101906020018083116103cc57829003601f168201915b50505050508152602001600282015481526020016003820154815260200160048201805461041690610eee565b80601f016020809104026020016040519081016040528092919081815260200182805461044290610eee565b801561048f5780601f106104645761010080835404028352916020019161048f565b820191906000526020600020905b81548152906001019060200180831161047257829003601f168201915b5050505050815250509250505092915050565b6104aa61087e565b600260008154809291906104bd90610f4e565b9190505550604051806040016040528060025481526020018281525060036000600254815260200190815260200160002060008201518160000155602082015181600101908161050d9190611142565b509050507fbdbe84519ca19dcb9610ab50ce3e5c1dd00d064124fecb04d3318e24385633d260405160405180910390a150565b60018060009054906101000a900473ffffffffffffffffffffffffffffffffffffffff1673ffffffffffffffffffffffffffffffffffffffff166370a08231336040518263ffffffff1660e01b815260040161059c9190611223565b602060405180830381865afa1580156105b9573d6000803e3d6000fd5b505050506040513d601f19601f820116820180604052508101906105dd9190611253565b10610614576040517f70b8bc9600000000000000000000000000000000000000000000000000000000815260040160405180910390fd5b60008054906101000a900473ffffffffffffffffffffffffffffffffffffffff1673ffffffffffffffffffffffffffffffffffffffff163373ffffffffffffffffffffffffffffffffffffffff1603610699576040517f2615c6f600000000000000000000000000000000000000000000000000000000815260040160405180910390fd5b60006003600086815260200190815260200160002090506000600460008360000154815260200190815260200160002060003373ffffffffffffffffffffffffffffffffffffffff1673ffffffffffffffffffffffffffffffffffffffff16815260200190815260200160002090508060000160009054906101000a900473ffffffffffffffffffffffffffffffffffffffff1673ffffffffffffffffffffffffffffffffffffffff163373ffffffffffffffffffffffffffffffffffffffff1603610791576040517f9e4a65f600000000000000000000000000000000000000000000000000000000815260040160405180910390fd5b338160000160006101000a81548173ffffffffffffffffffffffffffffffffffffffff021916908373ffffffffffffffffffffffffffffffffffffffff160217905550848160010190816107e59190611142565b50428160020181905550828160040190816108009190611142565b5083816003018190555080600201548160000160009054906101000a900473ffffffffffffffffffffffffffffffffffffffff1673ffffffffffffffffffffffffffffffffffffffff167f6f3bf3fa84e4763a43b3d23f9d79be242d6d5c834941ff4c1111b67469e1150c60405160405180910390a3505050505050565b60008054906101000a900473ffffffffffffffffffffffffffffffffffffffff1673ffffffffffffffffffffffffffffffffffffffff163373ffffffffffffffffffffffffffffffffffffffff1614610903576040517ff67dd57200000000000000000000000000000000000000000000000000000000815260040160405180910390fd5b565b604051806040016040528060008152602001606081525090565b6040518060a00160405280600073ffffffffffffffffffffffffffffffffffffffff168152602001606081526020016000815260200160008152602001606081525090565b6000604051905090565b600080fd5b600080fd5b6000819050919050565b61098b81610978565b811461099657600080fd5b50565b6000813590506109a881610982565b92915050565b6000602082840312156109c4576109c361096e565b5b60006109d284828501610999565b91505092915050565b6109e481610978565b82525050565b600081519050919050565b600082825260208201905092915050565b60005b83811015610a24578082015181840152602081019050610a09565b60008484015250505050565b6000601f19601f8301169050919050565b6000610a4c826109ea565b610a5681856109f5565b9350610a66818560208601610a06565b610a6f81610a30565b840191505092915050565b6000604083016000830151610a9260008601826109db565b5060208301518482036020860152610aaa8282610a41565b9150508091505092915050565b60006020820190508181036000830152610ad18184610a7a565b905092915050565b600073ffffffffffffffffffffffffffffffffffffffff82169050919050565b6000610b0482610ad9565b9050919050565b610b1481610af9565b8114610b1f57600080fd5b50565b600081359050610b3181610b0b565b92915050565b60008060408385031215610b4e57610b4d61096e565b5b6000610b5c85828601610b22565b9250506020610b6d85828601610999565b9150509250929050565b610b8081610af9565b82525050565b600060a083016000830151610b9e6000860182610b77565b5060208301518482036020860152610bb68282610a41565b9150506040830151610bcb60408601826109db565b506060830151610bde60608601826109db565b5060808301518482036080860152610bf68282610a41565b9150508091505092915050565b60006020820190508181036000830152610c1d8184610b86565b905092915050565b600080fd5b600080fd5b7f4e487b7100000000000000000000000000000000000000000000000000000000600052604160045260246000fd5b610c6782610a30565b810181811067ffffffffffffffff82111715610c8657610c85610c2f565b5b80604052505050565b6000610c99610964565b9050610ca58282610c5e565b919050565b600067ffffffffffffffff821115610cc557610cc4610c2f565b5b610cce82610a30565b9050602081019050919050565b82818337600083830152505050565b6000610cfd610cf884610caa565b610c8f565b905082815260208101848484011115610d1957610d18610c2a565b5b610d24848285610cdb565b509392505050565b600082601f830112610d4157610d40610c25565b5b8135610d51848260208601610cea565b91505092915050565b600060208284031215610d7057610d6f61096e565b5b600082013567ffffffffffffffff811115610d8e57610d8d610973565b5b610d9a84828501610d2c565b91505092915050565b60008060008060808587031215610dbd57610dbc61096e565b5b6000610dcb87828801610999565b945050602085013567ffffffffffffffff811115610dec57610deb610973565b5b610df887828801610d2c565b9350506040610e0987828801610999565b925050606085013567ffffffffffffffff811115610e2a57610e29610973565b5b610e3687828801610d2c565b91505092959194509250565b600082825260208201905092915050565b7f4e6f204576656e74207769746820746869732049640000000000000000000000600082015250565b6000610e89601583610e42565b9150610e9482610e53565b602082019050919050565b60006020820190508181036000830152610eb881610e7c565b9050919050565b7f4e487b7100000000000000000000000000000000000000000000000000000000600052602260045260246000fd5b60006002820490506001821680610f0657607f821691505b602082108103610f1957610f18610ebf565b5b50919050565b7f4e487b7100000000000000000000000000000000000000000000000000000000600052601160045260246000fd5b6000610f5982610978565b91507fffffffffffffffffffffffffffffffffffffffffffffffffffffffffffffffff8203610f8b57610f8a610f1f565b5b600182019050919050565b60008190508160005260206000209050919050565b60006020601f8301049050919050565b600082821b905092915050565b600060088302610ff87fffffffffffffffffffffffffffffffffffffffffffffffffffffffffffffffff82610fbb565b6110028683610fbb565b95508019841693508086168417925050509392505050565b6000819050919050565b600061103f61103a61103584610978565b61101a565b610978565b9050919050565b6000819050919050565b61105983611024565b61106d61106582611046565b848454610fc8565b825550505050565b600090565b611082611075565b61108d818484611050565b505050565b5b818110156110b1576110a660008261107a565b600181019050611093565b5050565b601f8211156110f6576110c781610f96565b6110d084610fab565b810160208510156110df578190505b6110f36110eb85610fab565b830182611092565b50505b505050565b600082821c905092915050565b6000611119600019846008026110fb565b1980831691505092915050565b60006111328383611108565b9150826002028217905092915050565b61114b826109ea565b67ffffffffffffffff81111561116457611163610c2f565b5b61116e8254610eee565b6111798282856110b5565b600060209050601f8311600181146111ac576000841561119a578287015190505b6111a48582611126565b86555061120c565b601f1984166111ba86610f96565b60005b828110156111e2578489015182556001820191506020850194506020810190506111bd565b868310156111ff57848901516111fb601f891682611108565b8355505b6001600288020188555050505b505050505050565b61121d81610af9565b82525050565b60006020820190506112386000830184611214565b92915050565b60008151905061124d81610982565b92915050565b6000602082840312156112695761126861096e565b5b60006112778482850161123e565b9150509291505056fea26469706673582212204697a2f0e271f42c62917be4241215f2170e71ad4ce6f8878baa8cdf4c45b27864736f6c63430008180033",
  "linkReferences": {},
  "deployedLinkReferences": {}
}