{
  "_format": "hh-sol-artifact-1",
  "contractName": "EventRegistration",
  "sourceName": "contracts/EventRegistration.sol",
  "abi": [
    {
      "inputs": [],
      "stateMutability": "nonpayable",
      "type": "constructor"
    },
    {
      "inputs": [],
      "name": "OnlyOwnerCanCallThisFunction",
      "type": "error"
    },
    {
      "inputs": [],
      "name": "OwnerCanNotRegister",
      "type": "error"
    },
    {
      "inputs": [],
      "name": "UserAlreadyRegistered",
      "type": "error"
    },
    {
      "inputs": [],
      "name": "UserDidNotRegister",
      "type": "error"
    },
    {
      "inputs": [],
      "name": "YouDonnotHaveTheNFT",
      "type": "error"
    },
    {
      "anonymous": false,
      "inputs": [
        {
          "indexed": true,
          "internalType": "address",
          "name": "_attendeeAdr",
          "type": "address"
        },
        {
          "indexed": true,
          "internalType": "uint256",
          "name": "_date",
          "type": "uint256"
        }
      ],
      "name": "Registered",
      "type": "event"
    },
    {
      "inputs": [
        {
          "internalType": "address",
          "name": "_userAddress",
          "type": "address"
        }
      ],
      "name": "getRegisteredUser",
      "outputs": [
        {
          "components": [
            {
              "internalType": "address",
              "name": "attendeeAdr",
              "type": "address"
            },
            {
              "internalType": "string",
              "name": "name",
              "type": "string"
            },
            {
              "internalType": "uint256",
              "name": "date",
              "type": "uint256"
            },
            {
              "internalType": "uint256",
              "name": "phoneNumber",
              "type": "uint256"
            },
            {
              "internalType": "string",
              "name": "email",
              "type": "string"
            }
          ],
          "internalType": "struct EventRegistration.RegistrationDetail",
          "name": "",
          "type": "tuple"
        }
      ],
      "stateMutability": "view",
      "type": "function"
    },
    {
      "inputs": [
        {
          "internalType": "string",
          "name": "_name",
          "type": "string"
        },
        {
          "internalType": "uint256",
          "name": "_phoneNumber",
          "type": "uint256"
        },
        {
          "internalType": "string",
          "name": "_email",
          "type": "string"
        }
      ],
      "name": "register",
      "outputs": [],
      "stateMutability": "nonpayable",
      "type": "function"
    }
  ],
  "bytecode": "0x608060405234801561001057600080fd5b50336000806101000a81548173ffffffffffffffffffffffffffffffffffffffff021916908373ffffffffffffffffffffffffffffffffffffffff16021790555073aaea0e09f45e8baf2539316dfafb13dfa97a802e600160006101000a81548173ffffffffffffffffffffffffffffffffffffffff021916908373ffffffffffffffffffffffffffffffffffffffff160217905550610e43806100b56000396000f3fe608060405234801561001057600080fd5b50600436106100365760003560e01c8063637a08321461003b578063e54a29bb14610057575b600080fd5b61005560048036038101906100509190610871565b610087565b005b610071600480360381019061006c919061095a565b610397565b60405161007e9190610aa1565b60405180910390f35b60018060009054906101000a900473ffffffffffffffffffffffffffffffffffffffff1673ffffffffffffffffffffffffffffffffffffffff166370a08231336040518263ffffffff1660e01b81526004016100e39190610ad2565b602060405180830381865afa158015610100573d6000803e3d6000fd5b505050506040513d601f19601f820116820180604052508101906101249190610b02565b1061015b576040517f70b8bc9600000000000000000000000000000000000000000000000000000000815260040160405180910390fd5b60008054906101000a900473ffffffffffffffffffffffffffffffffffffffff1673ffffffffffffffffffffffffffffffffffffffff163373ffffffffffffffffffffffffffffffffffffffff16036101e0576040517f2615c6f600000000000000000000000000000000000000000000000000000000815260040160405180910390fd5b6000600260003373ffffffffffffffffffffffffffffffffffffffff1673ffffffffffffffffffffffffffffffffffffffff16815260200190815260200160002090508060000160009054906101000a900473ffffffffffffffffffffffffffffffffffffffff1673ffffffffffffffffffffffffffffffffffffffff163373ffffffffffffffffffffffffffffffffffffffff16036102ac576040517f9e4a65f600000000000000000000000000000000000000000000000000000000815260040160405180910390fd5b338160000160006101000a81548173ffffffffffffffffffffffffffffffffffffffff021916908373ffffffffffffffffffffffffffffffffffffffff160217905550838160010190816103009190610d3b565b504281600201819055508181600401908161031b9190610d3b565b5082816003018190555080600201548160000160009054906101000a900473ffffffffffffffffffffffffffffffffffffffff1673ffffffffffffffffffffffffffffffffffffffff167f6f3bf3fa84e4763a43b3d23f9d79be242d6d5c834941ff4c1111b67469e1150c60405160405180910390a350505050565b61039f61069c565b6103a7610615565b6000600260008473ffffffffffffffffffffffffffffffffffffffff1673ffffffffffffffffffffffffffffffffffffffff16815260200190815260200160002090508060000160009054906101000a900473ffffffffffffffffffffffffffffffffffffffff1673ffffffffffffffffffffffffffffffffffffffff168373ffffffffffffffffffffffffffffffffffffffff1614610473576040517fbcb537ca00000000000000000000000000000000000000000000000000000000815260040160405180910390fd5b806040518060a00160405290816000820160009054906101000a900473ffffffffffffffffffffffffffffffffffffffff1673ffffffffffffffffffffffffffffffffffffffff1673ffffffffffffffffffffffffffffffffffffffff1681526020016001820180546104e590610b5e565b80601f016020809104026020016040519081016040528092919081815260200182805461051190610b5e565b801561055e5780601f106105335761010080835404028352916020019161055e565b820191906000526020600020905b81548152906001019060200180831161054157829003601f168201915b50505050508152602001600282015481526020016003820154815260200160048201805461058b90610b5e565b80601f01602080910402602001604051908101604052809291908181526020018280546105b790610b5e565b80156106045780601f106105d957610100808354040283529160200191610604565b820191906000526020600020905b8154815290600101906020018083116105e757829003601f168201915b505050505081525050915050919050565b60008054906101000a900473ffffffffffffffffffffffffffffffffffffffff1673ffffffffffffffffffffffffffffffffffffffff163373ffffffffffffffffffffffffffffffffffffffff161461069a576040517ff67dd57200000000000000000000000000000000000000000000000000000000815260040160405180910390fd5b565b6040518060a00160405280600073ffffffffffffffffffffffffffffffffffffffff168152602001606081526020016000815260200160008152602001606081525090565b6000604051905090565b600080fd5b600080fd5b600080fd5b600080fd5b6000601f19601f8301169050919050565b7f4e487b7100000000000000000000000000000000000000000000000000000000600052604160045260246000fd5b610748826106ff565b810181811067ffffffffffffffff8211171561076757610766610710565b5b80604052505050565b600061077a6106e1565b9050610786828261073f565b919050565b600067ffffffffffffffff8211156107a6576107a5610710565b5b6107af826106ff565b9050602081019050919050565b82818337600083830152505050565b60006107de6107d98461078b565b610770565b9050828152602081018484840111156107fa576107f96106fa565b5b6108058482856107bc565b509392505050565b600082601f830112610822576108216106f5565b5b81356108328482602086016107cb565b91505092915050565b6000819050919050565b61084e8161083b565b811461085957600080fd5b50565b60008135905061086b81610845565b92915050565b60008060006060848603121561088a576108896106eb565b5b600084013567ffffffffffffffff8111156108a8576108a76106f0565b5b6108b48682870161080d565b93505060206108c58682870161085c565b925050604084013567ffffffffffffffff8111156108e6576108e56106f0565b5b6108f28682870161080d565b9150509250925092565b600073ffffffffffffffffffffffffffffffffffffffff82169050919050565b6000610927826108fc565b9050919050565b6109378161091c565b811461094257600080fd5b50565b6000813590506109548161092e565b92915050565b6000602082840312156109705761096f6106eb565b5b600061097e84828501610945565b91505092915050565b6109908161091c565b82525050565b600081519050919050565b600082825260208201905092915050565b60005b838110156109d05780820151818401526020810190506109b5565b60008484015250505050565b60006109e782610996565b6109f181856109a1565b9350610a018185602086016109b2565b610a0a816106ff565b840191505092915050565b610a1e8161083b565b82525050565b600060a083016000830151610a3c6000860182610987565b5060208301518482036020860152610a5482826109dc565b9150506040830151610a696040860182610a15565b506060830151610a7c6060860182610a15565b5060808301518482036080860152610a9482826109dc565b9150508091505092915050565b60006020820190508181036000830152610abb8184610a24565b905092915050565b610acc8161091c565b82525050565b6000602082019050610ae76000830184610ac3565b92915050565b600081519050610afc81610845565b92915050565b600060208284031215610b1857610b176106eb565b5b6000610b2684828501610aed565b91505092915050565b7f4e487b7100000000000000000000000000000000000000000000000000000000600052602260045260246000fd5b60006002820490506001821680610b7657607f821691505b602082108103610b8957610b88610b2f565b5b50919050565b60008190508160005260206000209050919050565b60006020601f8301049050919050565b600082821b905092915050565b600060088302610bf17fffffffffffffffffffffffffffffffffffffffffffffffffffffffffffffffff82610bb4565b610bfb8683610bb4565b95508019841693508086168417925050509392505050565b6000819050919050565b6000610c38610c33610c2e8461083b565b610c13565b61083b565b9050919050565b6000819050919050565b610c5283610c1d565b610c66610c5e82610c3f565b848454610bc1565b825550505050565b600090565b610c7b610c6e565b610c86818484610c49565b505050565b5b81811015610caa57610c9f600082610c73565b600181019050610c8c565b5050565b601f821115610cef57610cc081610b8f565b610cc984610ba4565b81016020851015610cd8578190505b610cec610ce485610ba4565b830182610c8b565b50505b505050565b600082821c905092915050565b6000610d1260001984600802610cf4565b1980831691505092915050565b6000610d2b8383610d01565b9150826002028217905092915050565b610d4482610996565b67ffffffffffffffff811115610d5d57610d5c610710565b5b610d678254610b5e565b610d72828285610cae565b600060209050601f831160018114610da55760008415610d93578287015190505b610d9d8582610d1f565b865550610e05565b601f198416610db386610b8f565b60005b82811015610ddb57848901518255600182019150602085019450602081019050610db6565b86831015610df85784890151610df4601f891682610d01565b8355505b6001600288020188555050505b50505050505056fea26469706673582212207a264c8f41ff941f6d74cbba4d8aa6ec0f70ac4b2a528e3f8d72e4b2ea7c1f7d64736f6c63430008180033",
  "linkReferences": {},
  "deployedLinkReferences": {}
}